S0180000476363426F61726450726F6A656374312E737265630F
S113000019C1000036C1000034C1000032C1000033
S113001030C100002EC100002CC100002AC1000024
S113002028C100000C94500824C10000A1C40000A1
S113003020C100001EC100001CC100001AC1000044
S113004018C1000016C1000014C1000012C1000054
S113005010C100000EC100000CC100000AC1000064
S113006008C1000006C1000004C1000002C1000074
S113007000C10000FEC00000FCC00000FAC0000087
S1130080F8C00000F6C00000F4C000000664EC1BD9
S11300903C04BC163E3BE5B93CC93C37C29E5A3DC4
S11300A0660498083EEA69AAAA3E000000803F0759
S11300B0634236B79BD8A71A39685618AEBAAB55FF
S11300C08C1D3CB7CC5763BD6DEDFD753EF61772C4
S11300D031BF000000803F08000000BE9224491296
S11300E03EABAAAA2ABECDCCCC4C3E00000080BEBA
S11300F0ABAAAAAA3E00000000BF000000803F0097
S113010000000000084178D3BB4387D1133D190E8A
S11301103CC3BD4282AD2B3E68EC8276BED98FE1F2
S1130120A93E4C80EFFFBE01C4FF7F3F00000000EA
S113013000006E616E00696E660000407A10F35A2A
S113014000A0724E18090010A5D4E80000E8764813
S1130150170000E40B54020000CA9A3B000000E1BF
S1130160F505000080969800000040420F00000052
S1130170A08601000000102700000000E803000032
S113018000006400000000000A00000000000100FC
S1130190000000002C76D888DC674F0823DFC1DF1D
S11301A0AE59E1B1B796E5E3E453C63AE651997620
S11301B096E8E6C28426EB898C9B62ED407C6FFC5A
S11301C0EFBC9C9F40F2BAA56FA5F490055A2AF79C
S11301D05C936B6CF9676DC11BFCE0E40D47FEF5A5
S11301E020E6B500D0ED902E03009435770500800D
S11301F0841E080000204E0A000000C80C3333336C
S1130200330F986E12831141EF8D2114893BE6550B
S113021016CFFEE6DB18D1844B381BF77C1D901DEE
S1130220A4BBE424203284725E228100C9F124EC50
S1130230A1E53D2711241FBECFEFD0E1DEBFCDBF26
S113024012E0A0E0B1E0EAEFFBE200E00BBF02C085
S113025007900D92AC30B107D9F728E0ACE0B2E0DA
S113026001C01D92A739B207E1F70E94AF0A0C94AE
S1130270FB15C6CEDE9A992787FD9095FBD6DE98AE
S11302808BB3807F8BBB0895CF93C82FDC988BB33F
S11302909C2F9595959595959595892B8BBB82E08B
S11302A0E9DF8BB3CF70C82BCBBB82E0E3DFDC9AF2
S11302B0CF91089581E0E8DF81E090E0DBC6089506
S11302C082E0E2CF08958FEF8ABB83E08BBBDE9A96
S11302D081E090E0CFD6DE9885E090E0CBD6DE9A40
S11302E081E090E0C7D6DE98DE9A81E090E0C2D645
S11302F0DE9882E08BBB81E0BDDF8BB38BBB81E0FA
S1130300B9DF8BB38E608BBB81E0B4DF8BB38BBB67
S113031081E0B0DF8BB386608BBB81E0ABDF8BB356
S11303208BBB81E0A7DFD89A81E0A4DFDC9AC8CF39
S1130330089580ECA9CF089584E9A6CF089584EDAB
S1130340A3CF0895CF93C82F8BB39C2F95959595E4
S113035095959595892B8BBB81E08CDF8BB3CF7002
S1130360C82BCBBB81E086DFCF910895CF92DF927B
S1130370EF92FF920F931F93CF93DF93CDB7DEB726
S1130380C155D1090FB6F894DEBF0FBECDBFFE0133
S1130390E45AFF4F419151919F0161E570E0CE0114
S11303A001960E946515BE016F5F7F4F8CE092E05D
S11303B00E94EA14892B09F443C0BE016F5F7F4F8A
S11303C08CE092E00E94F31475DF9E012F5F3F4F93
S11303D0690100E010E00F2EF4E1EF2EF12CF02D76
S11303E027C08A3051F4C801B7010E945D12F70199
S11303F0E81BF90B0E0F1F1F03C0A4DF0F5F1F4F75
S1130400C801B7010E945D12892B91F4C801B7019C
S11304100E945D126230710541F06330710539F05C
S11304206130710529F485DF03C086DF01C087DFF1
S1130430F60181916F01882319F0003511058CF2C2
S1130440CF5ADF4F0FB6F894DEBF0FBECDBFDF919A
S1130450CF911F910F91FF90EF90DF90CF9008956F
S1130460EF92FF920F931F93CF93DF93EC017B01E5
S1130470CA01BA01B1D01E141F04BCF400E010E09C
S1130480CE0102D12C853D85020F131F8881837014
S113049071F42E8D3F8D232B51F488A199A1892BC2
S11304A031F40E151F0564F302C000E010E060E0B3
S11304B070E080E090E090D0C701801B910BDF9149
S11304C0CF911F910F91FF90EF900895CF92DF92FB
S11304D0EF92FF920F931F93CF93DF93EC018A0166
S11304E0772324F0EE24E394F12C03C0EE24EA9461
S11304F0FE2C882777FD8095982F0E94050C9F7706
S11305000E94D20B6B0188279927801B910B8E9D2B
S1130510B0018F9D700D9E9D700D1124E09EC00151
S1130520E19E900DF09E900D112456D01C141D04D4
S1130530D4F400E010E00F2EFBE8EF2EF1E0FF2EE4
S1130540F02DCE01A1D08E859F85080F191F1F9312
S11305500F93FF92EF920ADF0F900F900F900F907E
S11305600C151D0574F360E070E080E090E034D079
S1130570DF91CF911F910F91FF90EF90DF90CF907B
S1130580089564E370E081E090E00C94BF12089554
S1130590EBE9F0E0908195FFFDCF80939C000895F6
S11305A00F931F93CF93DF93082F162FD42FC22FAF
S11305B08BE8EEDF112329F081E0011103C080E014
S11305C001C080E0E5DF8D2FE3DF8C2FE1DFDF91D9
S11305D0CF911F910F9108950F931F93CF93DF93A2
S11305E0182F092FC62FD72F81E9D2DF802FD0DF14
S11305F0812FCEDF8D2FCCDF8C2FCADFDF91CF91FF
S11306001F910F910895AF92BF92CF92DF92EF9214
S1130610FF920F931F93CF93DF93C82F7B016A013F
S1130620A22EB32E8CE8B4DF8C2FB2DF8E2DB0DF78
S11306301E141F0474F4E6010A2D1B2DEC0CFD1C82
S11306408991A6DFF80181918F01A2DFCE15DF0524
S1130650B9F7DF91CF911F910F91FF90EF90DF9049
S1130660CF90BF90AF900895CF93C82F8DE890DFBF
S11306708C2F8EDFCF910895EBE9F0E08081882301
S1130680ECF780919C000895EF92FF920F931F93D3
S1130690CF93DF937C0180919B00882344F4ACE9E1
S11306A0B0E0EBE9F0E08C9180818823E4F38EE8FC
S11306B06FDF86E06DDFE70187010C5C1F4FDCDF35
S11306C08993C017D107D9F7F7018485992787FD46
S11306D09095982F88272585820F911D27FD9A953F
S11306E0958784878685992787FD9095982F8827F5
S11306F02785820F911D27FD9A9597878687818983
S1130700992787FD9095982F88272289820F911D1C
S113071027FD9A95928B818B8389992787FD9095E4
S1130720982F88272489820F911D27FD9A95948BF1
S1130730838B8689992787FD9095982F8827278909
S1130740820F911D27FD9A95978B868B808D992713
S113075087FD9095982F8827218D820F911D27FD65
S11307609A95918F808F828D992787FD9095982FE8
S11307708827238D820F911D27FD9A95938F828F51
S1130780848D992787FD9095982F8827258D820F32
S1130790911D27FD9A95958F848F868D992787FDC6
S11307A09095982F8827278D820F911D27FD9A9564
S11307B0978F868F80A1992787FD9095982F8827FA
S11307C021A1820F911D27FD9A9591A380A382A157
S11307D0992787FD9095982F882723A1820F911D33
S11307E027FD9A9593A382A382A5992787FD9095C7
S11307F021A5332727FD3095322F2227280F391FB3
S113080036A325A320A9332727FD3095322F22278D
S1130810820F931F95A784A782A9992787FD909596
S1130820982F882723A9820F911D27FD9A9597A7B2
S113083086A784A9992787FD9095982F882725A9AD
S1130840820F911D27FD9A9591AB80AB86A99927BC
S113085087FD9095982F882727A9820F911D27FD42
S11308609A9593AB82AB83E290E004D4DF91CF916D
S11308701F910F91FF90EF9008950F931F93CF93C3
S1130880DF93EC0109E910E080E1F801808388E15D
S113089080939A0086E080939D0080E879DE81E869
S11308A077DE88E075DE84E690E0E4D381E2F80147
S11308B0808384E86DDE2FEF47E061E081E070DE45
S11308C0CE01E2DECE01E0DEDF91CF911F910F91E8
S11308D00895149A88EF97EA90938700809386008E
S11308E083E280938B008AE180938A0008958F923B
S11308F09F92AF92BF92CF92DF92EF92FF92CF93EB
S1130900DF936B017C01C0910601D0910701BE0108
S1130910882777FD8095982F78D74B015C016091EB
S11309200801709109016C1B7D0B882777FD809568
S1130930982F6BD7A70196010E94B50C20E030E0F8
S113094044E353E4C7D69B01AC01C501B4015AD6B4
S113095029D77093850060938400DF91CF91FF9035
S1130960EF90DF90CF90BF90AF909F908F900895BD
S11309701F920F920FB60F9211248F939F93809121
S1130980750290917602909378028093770286B5EF
S113099097B590937602809375028091730290913B
S11309A07402019690937402809373029EB580E45E
S11309B089278EBD9F918F910F900FBE0F901F902E
S11309C018958C9A949A81E090E054D394988C98DA
S11309D0089587B78F7D87BFF4DF86B7806286BFAF
S11309E087B7806287BF8EB5887B8EBD8EB58260E7
S11309F08EBD8EB580648EBD089582E090E03AD3BA
S1130A00E8DF80917302909174020297D1F780918C
S1130A10730290917402029709F056C020917702F4
S1130A203091780280917502909176028217930733
S1130A3088F4809175029091760290937602809367
S1130A4075028091710290917202019690937202E4
S1130A5080937102809175029091760220917702C1
S1130A6030917802821B930BA0E0B0E080932708BA
S1130A7090932808A0932908B0932A088091270806
S1130A8090912808A0912908B0912A089C01AD01F1
S1130A9044275527A0EDB4E80E94A11220E039E0D4
S1130AA04DE350E00E947012DA01C901AA27BB2766
S1130AB080936D0290936E02A0936F02B0937002C4
S1130AC01092740210927302089580EC87B987E83B
S1130AD086B90895FEDEF9DF7894089597B18F7191
S1130AE0982B97B9369A3699FECF84B195B108956B
S1130AF04F925F926F927F928F929F92AF92BF922A
S1130B00CF92DF92EF92FF9282E090E0B3D282E044
S1130B10E5DF9093300880932F08BC0180E090E0DB
S1130B2072D66B017C0125E236E041E95FEB80D7A8
S1130B3020E03EE144EC56E418D720E030E040E009
S1130B4050E460D534D64B015C0160932B0870935C
S1130B502C0880932D0890932E086091690270915F
S1130B606A0280916B0290916C02609365027093AB
S1130B706602809367029093680247D620E030E0D3
S1130B8040E05FE3F2D62B013C01C501B4013BD642
S1130B9020E030E040E05FE3E8D69B01AC01C30114
S1130BA0B20130D5FFD56093690270936A028093D5
S1130BB06B0290936C0260915D0270915E02809171
S1130BC05F0290916002609361027093620280936D
S1130BD063029093640219D620E030E040E05FE3C2
S1130BE0C4D64B015C0120E030E040E05FE3C70184
S1130BF0B601BBD69B01AC01C501B40103D5D2D566
S1130C0060935D0270935E0280935F029093600232
S1130C10FF90EF90DF90CF90BF90AF909F908F9018
S1130C207F906F905F904F900895AF92BF92CF9254
S1130C30DF92EF92FF920F931F93CF93DF93109263
S1130C407B0210927C0210927D0210927E026091CF
S1130C507B0270917C0280917D0290917E0247DE3E
S1130C6088EE93E007D2C0E0D0E00F2EFAE0CF2E5A
S1130C70F02DD12C0F2EF9E6EF2EF2E0FF2EF02D01
S1130C800DE612E081E090E0F5D1AC2CBD2C30DF14
S1130C9081E0A81AB108A114B104C9F7AEDED701E6
S1130CA08D919C91FE01EE0FFF1FEE0FFF1FEE0FC3
S1130CB0FF1FE158FD4F93838283D8018D919C914E
S1130CC09183808380917B0290917C02A0917D022C
S1130CD0B0917E0284839583A683B78381E090E0FC
S1130CE0C9D160917B0270917C0280917D029091C8
S1130CF07E0220E030E040E85FE384D460937B022E
S1130D0070937C0280937D0290937E0260917B02BB
S1130D1070917C0280917D0290917E02E8DD2196A3
S1130D20C53BD10509F0AECFDF91CF911F910F9153
S1130D30FF90EF90DF90CF90BF90AF9008952F92E7
S1130D403F924F925F926F927F928F929F92AF9257
S1130D50BF92CF92DF92EF92FF920F931F93CF93A4
S1130D60DF93CDB7DEB764970FB6F894DEBF0FBE3E
S1130D70CDBF10927A0210927902912C01E010E01A
S1130D806894332433F8212CF801EE0FFF1FEE0F83
S1130D90FF1FEE0FFF1FE158FD4FDE011996832D53
S1130DA001900D928A95E1F78B859C85CD84DE8434
S1130DB0EF84F888F801EE0FFF1FEE0FFF1FEE0F10
S1130DC0FF1FE958FD4FDE011196232D01900D926E
S1130DD02A95E1F7AB80BC8080359105A4F491108D
S1130DE008C0C701B601DED47C8B6B8B9924939425
S1130DF061C020E030E044E353E4C701B60166D4A7
S1130E00882321F057C0992009F454C0C701B601C2
S1130E10C9D46B017C01CB012B893C89821B930BC8
S1130E20BC0112F46F5F7F4F75956795882777FD36
S1130E308095982FEAD42BED3FE049E450E495D512
S1130E4020E030E044E353E445D43ED62B013C019A
S1130E508090790290907A02C401880F991F880FBC
S1130E60991F880F991FFC01EF5CF74FFA8BE98BF0
S1130E702B893C8931832083D382C282B582A482A8
S1130E80B501882777FD8095982FBFD49B01AC01CD
S1130E90C301B2016AD59B01AC01B4D383D4E989FF
S1130EA0FA8977836683C401019690937A028093CA
S1130EB07902922C0F5F1F4F053B110509F064CF97
S1130EC064960FB6F894DEBF0FBECDBFDF91CF910D
S1130ED01F910F91FF90EF90DF90CF90BF90AF9054
S1130EE09F908F907F906F905F904F903F902F9046
S1130EF008956F927F928F929F92AF92BF92CF92FA
S1130F00DF92EF92FF920F931F93CF93DF93CDB7AE
S1130F10DEB7E2970FB6F894DEBF0FBECDBF84E60E
S1130F2090E0A8D08091790290917A02181619065F
S1130F300CF063C00F2EF1E3EF2EF8E0FF2EF02D3E
S1130F40C12CD12C0F2EFCE38F2EF1E09F2EF02D1F
S1130F508E010F5F1F4F0F2EF3E4AF2EF1E0BF2E73
S1130F60F02D0F2EFDE46F2EF1E07F2EF02D84E3A3
S1130F7091E0BDD0F70183818F9382818F939F92FB
S1130F808F921F930F930E943715C801B0D08AE047
S1130F9090E070D0F70181818F9380818F93BF920D
S1130FA0AF921F930F930E943715C801A0D08AE017
S1130FB090E060D0F70185818F9384818F937F9235
S1130FC06F921F930F930E943715C80190D081E050
S1130FD090E050D0FFEFCF1ADF0A88E0E80EF11C52
S1130FE00FB6F894DEBF0FBECDBF80917902909109
S1130FF07A02C816D9060CF4BACFE2960FB6F89462
S1131000DEBF0FBECDBFDF91CF911F910F91FF9037
S1131010EF90DF90CF90BF90AF909F908F907F9094
S11310206F90089557DD60E070E0CB0160DC8AE0EA
S113103090E020D0FADD83DE5CCF08951092920810
S113104010929108811106C08BE085BD87B7806836
S113105087BF07C0813029F489E085BD87B78068E0
S113106087BF7894089587B78F7787BF85B58F77C3
S113107085BD0895CF93DF93EC018AEF83BD109271
S113108092081092910880E0D9DF20919108309164
S113109092082C173D07C8F3E6DFDF91CF9108953E
S11310A01F920F920FB60F9211248F939F938091EA
S11310B091089091920801969093920880939108D8
S11310C09F918F910F900FBE0F901F9018951092C3
S11310D0900082E289B982E08BB98EE0809395001A
S11310E088E18AB908955D9BFECF8CB90895CF93AA
S11310F0DF93EC018881882329F02196F4DF89911C
S11311008111FCCF8DE0EFDF8AE0EDDFDF91CF913D
S11311100895CF92DF92EF92FF920F931F93CF9394
S1131120DF93CDB7DEB7C456D1090FB6F894DEBF4E
S11311300FBECDBF7C01D62EC72EA6DAF701808163
S1131140869581701F928F9385E591E09F938F938D
S11311508E010F5F1F4F1F930F930E943715C80115
S1131160C6DF81E090E086DFF701808181701F9205
S11311708F938CE591E09F938F931F930F930E941D
S11311803715C801B4DF81E090E074DFF701838193
S11311901F928F9383E691E09F938F931F930F93F6
S11311A00E943715C801A3DF81E090E063DFF701F7
S11311B084811F928F938AE691E09F938F931F936C
S11311C00F930E943715C80192DF81E090E052DF4F
S11311D0F701878D8F93868D8F9381E791E09F939D
S11311E08F931F930F930E943715C80180DF81E00E
S11311F090E040DFF70181A18F9380A18F9388E76E
S113120091E09F938F931F930F930E9437150FB60E
S1131210F894DEBF0FBECDBFC80169DF81E090E066
S113122029DFCF92DF928FE491E09F938F931F93F6
S11312300F930E943715C8015ADF81E090E01ADF4E
S11312408FE791E054DF0F900F900F900F900F9065
S11312500F90CC59DF4F0FB6F894DEBF0FBECDBF51
S1131260DF91CF911F910F91FF90EF90DF90CF907E
S11312700895CF93DF93CDB7DEB7E2970FB6F89416
S1131280DEBF0FBECDBF8C010F2EF4E6CF2ED12CC6
S1131290F02D0F2EF8E9AF2EF1E0BF2EF02D9E01B8
S11312A02F5F3F4F79010F2EFEE88F2EF1E09F2E26
S11312B0F02D0F2EF4E86F2EF1E07F2EF02D46C1B5
S11312C05CB037E7531204C0B601C60185D929C002
S11312D083E7581207C0882799278C199D09BC01F8
S11312E07BD93EC091E659121CC0662777276C193A
S11312F07D09C60171D9C801C7D9F80187858F93C3
S113130086858F937F926F92FF92EF920E9437159A
S1131310C701EDDE0F900F900F900F900F900F907C
S113132026C0F4E65F121CC0B601882799278C19E1
S11313309D0952D9C801A8D9F80187858F9386855C
S11313408F939F928F92FF92EF920E943715C7015D
S1131350CEDE0F900F900F900F900F900F900EC055
S1131360FBE25F1204C029E1C20ED11C0EC03DE2B3
S1131370531204C089E1C81AD1080FC090E759126A
S113138004C081E090E070D911C0E0E25E1205C0B3
S113139049DEB601C801BDDE12C0F5E65F1206C023
S11313A0A6016EE071E0C80191D812C021E7521283
S11313B006C0A6016AE570E0C80188D809C03AE70A
S11313C0531206C044E650E064E170E0C80148D816
S11313D0C8015AD9F80183A18F9382A18F9381A167
S11313E08F9380A18F93878D8F93868D8F93858D17
S11313F08F93848D8F93BF92AF92FF92EF920E944E
S11314003715C70174DEF80180810FB6F894DEBF8A
S11314100FBECDBF81FF0CC06EEC7FEF8EEC9FEF53
S1131420DBD887EA91E063DE88E893E123DE90C0AD
S113143080FF0CC06EEC7FEF8EEC9FEFCDD885EB78
S113144091E055DE88E893E115DE82C0F8018381DE
S1131450882361F06EEC7FEF8EEC9FEFBDD884ECB7
S113146091E045DE88E893E105DE72C0F8018481ED
S1131470882361F06EEC7FEF8EEC9FEFADD881EDA9
S113148091E035DE88E893E1F5DD62C0F801868DF0
S1131490978D855F91408B3D954060F46EEC7FEFB6
S11314A08EEC9FEF99D88FED91E021DE82E390E0FE
S11314B0E1DD4EC0F80180A191A18D5B92408331A2
S11314C0954060F46EEC7FEF8EEC9FEF85D881EF52
S11314D091E00DDE82E390E0CDDD3AC0F80182A117
S11314E093A18837910558F481E090E0BDD884E059
S11314F092E0FDDD60E070E080E090E06DD8F801FE
S1131500868D978D8837910558F481E090E0ACD8AA
S113151084E092E0ECDD60E070E080E090E05CD894
S1131520F801848D958D8837910558F481E090E019
S11315309BD884E092E0DBDD60E070E080E090E046
S11315404BD8C801A1D88AE090E094DD5F99B8CE69
S113155060E070E080E090E03FD8F8CF0895CF934A
S1131560DF93CDB7DEB762970FB6F894DEBF0FBE38
S1131570CDBFF4DF0E946301AADD60E070E080E08B
S113158090E02AD889E0EAE0F1E0DE0111960190CA
S11315900D928A95E1F789E0E3E1F1E0DE011A9624
S11315A001900D928A95E1F760E070E080E090E0B0
S11315B013D80E94C1028C0160D988E092E09F9305
S11315C08F930E94B6019E01265F3F4FAE014F5F8D
S11315D05F4F69E070E081E090E015D860E070E072
S11315E080E090E00E94EC0280ED97E043DD0F90F4
S11315F00F90C80149D8C8013CDE80ED97E03ADD80
S1131600F8CF5058BB27AA270ED075C166D130F049
S11316106BD120F031F49F3F11F41EF45BC10EF442
S1131620E095E7FB51C1E92F77D180F3BA17620740
S113163073078407950718F071F49EF58FC10EF4B3
S1131640E0950B2EBA2FA02D0B01B90190010C01CE
S1131650CA01A0011124FF27591B99F0593F50F4E6
S1131660503E68F11A16F040A22F232F342F44273E
S1131670585FF3CF469537952795A795F040539536
S1131680C9F77EF41F16BA0B620B730B840BBAF006
S11316909150A1F0FF0FBB1F661F771F881FC2F771
S11316A00EC0BA0F621F731F841F48F48795779585
S11316B06795B795F7959E3F08F0B3CF9395880F3C
S11316C008F09927EE0F979587950895D9D008F4D7
S11316D081E008950CD00FC107D140F0FED030F066
S11316E021F45F3F19F0F0C0511139C1F3C014D196
S11316F098F39923C9F35523B1F3951B550BBB27D5
S1131700AA2762177307840738F09F5F5F4F220F81
S1131710331F441FAA1FA9F333D00E2E3AF0E0E87A
S113172030D091505040E695001CCAF729D0FE2FC6
S113173027D0660F771F881FBB1F26173707480758
S1131740AB07B0E809F0BB0B802DBF01FF2793580E
S11317505F4F2AF09E3F510568F0B6C000C15F3F5D
S1131760ECF3983EDCF3869577956795B795F795F6
S11317709F5FC9F7880F911D9695879597F90895EE
S1131780E1E0660F771F881FBB1F6217730784078A
S1131790BA0720F0621B730B840BBA0BEE1F88F799
S11317A0E095089504D06894B111D9C00895BCD0CF
S11317B088F09F5790F0B92F9927B751A0F0D1F036
S11317C0660F771F881F991F1AF0BA95C9F712C0C0
S11317D0B13081F0C3D0B1E00895C0C0672F782F35
S11317E08827B85F39F0B93FCCF38695779567952C
S11317F0B395D9F73EF490958095709561957F4F98
S11318008F4F9F4F0895E89409C097FB3EF490953D
S11318108095709561957F4F8F4F9F4F9923A9F0C5
S1131820F92F96E9BB279395F69587957795679554
S1131830B795F111F8CFFAF4BB0F11F460FF1BC098
S11318406F5F7F4F8F4F9F4F16C0882311F096E92B
S113185011C0772321F09EE8872F762F05C06623D9
S113186071F096E8862F70E060E02AF09A95660F92
S1131870771F881FDAF7880F9695879597F908954B
S1131880990F0008550FAA0BE0E8FEEF161617068D
S1131890E807F907C0F012161306E407F50798F0F5
S11318A0621B730B840B950B39F40A2661F0232B0E
S11318B0242B252B21F408950A2609F4A140A6958A
S11318C08FEF811D811D089597F99F6780E870E06F
S11318D060E008959FEF80EC089500240A941616A2
S11318E0170618060906089500240A94121613060A
S11318F0140605060895092E0394000C11F4882398
S113190052F0BB0F40F4BF2B11F460FF04C06F5FB3
S11319107F4F8F4F9F4F089557FD9058440F551F89
S113192059F05F3F71F04795880F97FB991F61F05D
S11319309F3F79F087950895121613061406551FD4
S1131940F2CF4695F1DF08C0161617061806991F40
S1131950F1CF86957105610508940895E894BB2735
S113196066277727CB0197F908950BD0C4CFB5DF4D
S113197028F0BADF18F0952309F0A6CFABCF1124D5
S1131980EECFCADFA0F3959FD1F3950F50E0551F1A
S1131990629FF001729FBB27F00DB11D639FAA27C0
S11319A0F00DB11DAA1F649F6627B00DA11D661F0F
S11319B0829F2227B00DA11D621F739FB00DA11D30
S11319C0621F839FA00D611D221F749F3327A00DEA
S11319D0611D231F849F600D211D822F762F6A2F86
S11319E011249F5750408AF0E1F088234AF0EE0F0B
S11319F0FF1FBB1F661F771F881F91505040A9F718
S1131A009E3F510570F060CFAACF5F3FECF3983E44
S1131A10DCF3869577956795B795F795E7959F5F7E
S1131A20C1F7FE2B880F911D9695879597F9089518
S1131A30FA01EE0FFF1F30962105310599F161156A
S1131A40710561F48038BFE39B0749F168949038CD
S1131A50810561F08038BFEF9B0741F0992342F57F
S1131A60FF3FE1053105210511F1E8940894E7955C
S1131A70D901AA2329F4AB2FBE2FF85FD0F310C0ED
S1131A80FF5F70F4A695E0F7F73950F019F0FF3ACC
S1131A9038F49F779F930CD00F9007FC90580895CB
S1131AA03EF018CF60E070E080E89FE308954FE7D0
S1131AB09F775F934F933F932F93F7D02F913F914D
S1131AC04F915F9152DF25C0DF93D92F85D0E695E2
S1131AD0D7952AED3FE049E45FE3B33A6207730721
S1131AE084079507D7952AF0A2EA49EC90689BDD14
S1131AF002DFECE8F0E05ED0DD0F0BF094D0DD0FF8
S1131B000BF49058DF91089519F40EF0DDCE26CF32
S1131B10E1CE0ADFC8F39638C0F707F80F92E894CD
S1131B202BE33AEA48EB5FE72EDF0F920F920F9216
S1131B304DB75EB70F92F9D0EFEAF0E016D04F91AF
S1131B405F91EF91FF91E595EE1FFF1F49F0FE575E
S1131B50E0684427EE0F441FFA95E1F74195550BD1
S1131B606BD00F9007FE5FC00895DF93CF931F9350
S1131B700F93FF92EF92DF927B018C01689405C072
S1131B80DA2EEF01FEDEFE01E894A5912591359150
S1131B9045915591AEF3EF0146DDFE019701A80191
S1131BA0DA9479F7DF90EF90FF900F911F91CF9126
S1131BB0DF9108959F938F937F936F93FF93EF9398
S1131BC09B01AC01D2DEEF91FF91CFDF2F913F91CA
S1131BD04F915F91CACE7ECEA7DEE8F3E894E0E0B1
S1131BE0BB279F57F0F02AED3FE049EC06C0EE0F0B
S1131BF0BB0F661F771F881F28F0B23A620773076E
S1131C00840728F0B25A620B730B840BE3959A9500
S1131C1072F7803830F49A95BB0F661F771F881FC0
S1131C20D2F79048B7C09B01AC0160E070E080E857
S1131C309FE350CD49CEACC077DEE8F39923D9F3C6
S1131C40940F511DBBF39150504094F059F08823E8
S1131C5032F0660F771F881F91505040C1F79E3FA6
S1131C60510544F7880F911D9695879597F9089526
S1131C705F3FACF0983E9CF0BB27869577956795BF
S1131C80B79508F4B1609395C1F7BB0F58F711F4F9
S1131C9060FFE8CF6F5F7F4F8F4F9F4FE3CF5FCEE3
S1131CA00EF076C017CE68940FCE3EDEC8F39923AB
S1131CB0D1F3C6F3DF93CF931F930F93FF92C92FF2
S1131CC0DD2788232AF02197660F771F881FDAF70C
S1131CD020E030E040E85FEB9FE3883920F0803E6D
S1131CE030F021968F778EDCE7EDF0E003C08ADCDC
S1131CF0E4E0F1E03ADF8B01BE01EC01FB2E6F570B
S1131D0071097595771F880B990B7FDD28E132E700
S1131D1041E35FE336DEAF2D9801AE01FF900F91F2
S1131D201F91CF91DF917FDCE6CDFA01DC01AA0F90
S1131D30BB1F9B01AC01BF5728F42227332744273C
S1131D4050781FC0B75188F4AB2F002446953795BF
S1131D502795011CA395D2F3002069F0220F331FAD
S1131D60441FB395DAF30DD04CCC61307105A0E873
S1131D708A07B94630F49B01AC0166277727882788
S1131D809078309621F020833183428353830895E1
S1131D909F3F31F0915020F4879577956795B795DB
S1131DA0880F911D9695879597F908952F923F92E4
S1131DB04F925F926F927F928F929F92AF92BF9257
S1131DC0CF92DF92EF92FF920F931F93CF93DF9303
S1131DD0CDB7DEB763970FB6F894DEBF0FBECDBFA5
S1131DE07C011B016A01FC0117821682838181FF39
S1131DF049C3BE016F5F7F4F4B01F7019381F1012E
S1131E0093FD859193FF81911F01882309F436C3C3
S1131E10853239F493FD859193FF81911F018532B9
S1131E2031F4B70190E0F1D556016501E6CF10E039
S1131E30512C20E02032A0F48B3269F030F480324F
S1131E4059F0833269F420612CC08D3239F080332B
S1131E5039F4216026C02260246023C0286021C098
S1131E6027FD27C030ED380F3A3078F426FF06C03E
S1131E70FAE01F9F300D1124132F13C06AE0569E01
S1131E80300D1124532E20620CC08E3221F426FD15
S1131E90F5C2206406C08C3611F4206802C088366E
S1131EA041F4F10193FD859193FF81911F0181110B
S1131EB0C1CF9BEB980F933018F42061805E06C06D
S1131EC09BE9980F933008F09AC12F7E26FF16E005
S1131ED02F73722E853621F4F22FF0647F2E08C002
S1131EE0863621F4622F6068762E02C011111150DB
S1131EF077FE07C01C3348F444244394410E27E082
S1131F000BC0183030F4212F06C027E04CE3442ED8
S1131F1003C027E017E0412C560174E0A70EB11C62
S1131F20F6016081718182819381042DA40168D4BA
S1131F306C01098100FF02C003FF06C071FC07C0E9
S1131F4072FC08C0612C08C03DE2632E05C02BE280
S1131F50622E02C090E2692E802F8C7081F166207F
S1131F6011F084E001C083E0851510F0512C0AC003
S1131F70581A73FC07C0B70180E290E046D55A9422
S1131F80D1F7F4CF662021F0B701862D90E03DD53E
S1131F9003FD03C006E311E002C002E311E0F72DE4
S1131FA0F0717F2EF8018491882309F45EC27110C8
S1131FB08052B70190E029D50F5F1F4FF3CF77FE12
S1131FC00FC04C0C04FF04C08A81813309F44A9485
S1131FD0141474F5F8E0F41578F588E0482E2CC054
S1131FE076FC2AC0812F90E08C159D059CF06CEF47
S1131FF0C6166FEFD60674F0772D7068772E0AC078
S1132000E2E0F0E0EC0FFD1FE10FF11D8081803371
S113201019F411501111F4CF77FE0EC044244394E7
S1132020410E812F90E0C816D9062CF41C1904C067
S11320304424439401C010E077FE07C01C141D041F
S11320403CF496012F5F3F4F05C025E030E002C00D
S113205021E030E0662011F02F5F3F4F112331F073
S1132060412F50E04F5F5F4F240F351F452D50E047
S11320702417350714F4521A01C0512C872D897086
S113208041F4552031F0B70180E290E0BED45A9477
S1132090F8CF662021F0B701862D90E0B6D473FC0A
S11320A008C0552031F0B70180E390E0AED45A94D3
S11320B0F8CF77FE5DC09C2D8D2DD7FE02C090E039
S11320C080E0692E782E40E050E0C6018419910921
S11320D09D878C87960126193709280D391D812F74
S11320E090E0EE27FF27E81BF90BFF87EE87FFEF51
S11320F06F167F0661F4B7018EE290E02B8B3A8B6A
S1132100488B598B82D4598948893A892B89C614BA
S1132110D70454F06C857D85661577052CF4F90198
S1132120E40FF51F818101C080E371E0671A710833
S11321304F5F5F4FEE85FF856E167F0664F0B70133
S113214090E02B8B3A8B488B598B5FD42B893A893F
S113215048895989CCCF6C147D0439F49A8196331B
S113216018F4953311F404FF81E3B70190E045C0FE
S11321708A81813309F00F7EB70190E046D41111B2
S113218005C074FE16C085E490E015C0B7018EE268
S113219090E03BD482E066246394680EF401E80F77
S11321A0F11D8081B70190E030D4115051F3862D98
S11321B0F2CF85E690E0B70128D4D7FC05C0C1145E
S11321C0D10439F404FF05C0D194C194D1088DE23F
S11321D001C08BE2B70190E018D480E36AE0C61630
S11321E0D1042CF08F5FFAE0CF1AD108F7CFB701F2
S11321F090E00BD4B701C601C09607D436C183362C
S113220031F0833779F0833509F054C020C056018A
S113221072E0A70EB11CF6018081898301E010E011
S1132220640113C05601F2E0AF0EB11CF601C08088
S1132230D18026FF03C0612F70E002C06FEF7FEFF3
S1132240C6012B8BD7D38C012B892F7714C0560151
S1132250F2E0AF0EB11CF601C080D18026FF03C0AE
S1132260612F70E002C06FEF7FEFC6012B8BA0D30C
S11322708C012B892068722E23FD18C0852D90E0D7
S11322800817190798F4B70180E290E0BED35A9476
S1132290F5CFF60177FC859177FE81916F01B70147
S11322A090E0B3D351105A9401501109011511054E
S11322B081F7DBC0843611F0893649F5560127FFD2
S11322C009C0F4E0AF0EB11CF60160817181828116
S11322D093810AC0F2E0AF0EB11CF60160817181F6
S11322E0882777FD8095982F022F0F7697FF08C0D7
S11322F090958095709561957F4F8F4F9F4F0068A3
S11323002AE030E0A40119D4C82EC8183DC0022F19
S1132310853721F40F7E2AE030E01DC0097F8F3617
S113232091F018F4883559F0A9C0803719F088372E
S113233011F0A4C0006104FF09C0046007C024FFB9
S113234008C0066006C028E030E005C020E130E0A7
S113235002C020E132E0560107FF09C0F4E0AF0EED
S1132360B11CF601608171818281938108C0F2E021
S1132370AF0EB11CF6016081718180E090E0A40190
S1132380DCD3C82EC8180F7706FF0BC0202F2E7F72
S1132390C11650F404FF0AC002FD08C0202F2E7E8F
S11323A005C0DC2C202F03C0DC2C01C0D12E24FF5F
S11323B00DC0FE01EC0DF11D8081803311F4297EE6
S11323C009C022FF06C0D394D39404C0822F867818
S11323D009F0D39423FD12C020FF06C01C2DD51490
S11323E018F4150D1D19D52CD51460F4B70180E22D
S11323F090E02B8B0AD3D3942B89F6CFD51410F409
S11324005D1801C0512C24FF11C0B70180E390E096
S11324102B8BFBD22B8922FF16C021FF03C088E53A
S113242090E002C088E790E0B7010CC0822F867864
S113243051F021FD02C080E201C08BE227FD8DE254
S1132440B70190E0E2D2C11630F4B70180E390E026
S1132450DCD21150F8CFCA94F401EC0DF11D808147
S1132460B70190E0D2D2C110F6CF552009F4DDCCEB
S1132470B70180E290E0C9D25A94F7CFF701868180
S1132480978102C08FEF9FEF63960FB6F894DEBF7B
S11324900FBECDBFDF91CF911F910F91FF90EF90B1
S11324A0DF90CF90BF90AF909F908F907F906F9070
S11324B05F904F903F902F90089597FB072E16F44E
S11324C0009406D077FD08D046D007FC05D03EF432
S11324D0909581959F4F0895709561957F4F0895CC
S11324E0A1E21A2EAA1BBB1BFD010DC0AA1FBB1F14
S11324F0EE1FFF1FA217B307E407F50720F0A21B86
S1132500B30BE40BF50B661F771F881F991F1A94F2
S113251069F760957095809590959B01AC01BD011C
S1132520CF010895A29FB001B39FC001A39F700D76
S1132530811D1124911DB29F700D811D1124911DC7
S11325400895F0DFA59F900DB49F900DA49F800D7A
S1132550911D11240895AA1BBB1B51E107C0AA1F9A
S1132560BB1FA617B70710F0A61BB70B881F991F30
S11325705A95A9F780959095BC01CD0108950F93C4
S11325801F93CF93DF93869F8001879F100D969FA3
S1132590100D1124C8010DD0EC01009721F0A80101
S11325A060E070E010D2CE01DF91CF911F910F91C6
S11325B00895CF93DF938230910510F482E090E088
S11325C0E0919508F091960820E030E0A0E0B0E0BA
S11325D0309739F14081518148175907B8F04817AD
S11325E0590771F482819381109729F013969C9373
S11325F08E9312972CC0909396088093950827C0C9
S11326002115310531F04217530718F0A901DB01F8
S113261001C0EF019A01BD01DF010280F381E02DC9
S1132620D7CF21153105F9F0281B390B243031059A
S113263080F48A819B816115710521F0FB019383EC
S1132640828304C09093960880939508FE01329685
S113265044C0FE01E20FF31F81939193225031098C
S1132660398328833AC02091930830919408232B0E
S113267041F4209102013091030130939408209396
S1132680930820910001309101012115310541F495
S11326902DB73EB74091040150910501241B350B21
S11326A0E0919308F0919408E217F307A0F42E1B2D
S11326B03F0B2817390778F0AC014E5F5F4F2417A2
S11326C0350748F04E0F5F1F5093940840939308CA
S11326D08193919302C0E0E0F0E0CF01DF91CF91CC
S11326E00895CF93DF93009709F487C0FC013297D4
S11326F013821282C0919508D0919608209781F494
S113270020813181280F391F80919308909194087A
S11327108217930779F5F0939408E09393086DC0BA
S1132720DE0120E030E0AE17BF0750F412964D9161
S11327305C9113979D014115510509F1DA01F3CF1D
S1132740B383A28340815181840F951F8A179B070D
S113275071F48D919C911197840F951F029691832A
S1132760808312968D919C91139793838283211574
S1132770310529F4F0939608E09395083EC0D901F9
S11327801396FC93EE9312974D915D91A40FB51F90
S1132790EA17FB0779F480819181840F951F0296D3
S11327A0D90111969C938E938281938113969C9365
S11327B08E931297E0E0F0E08A819B81009719F0F4
S11327C0FE01EC01F9CFCE01029628813981820FF6
S11327D0931F20919308309194082817390769F4BE
S11327E0309729F4109296081092950802C013822B
S11327F01282D0939408C0939308DF91CF910895E7
S1132800283008F027E03327DA01990F311D87FDBE
S1132810916000966105710539F432602E5F3D9335
S113282030E32A95E1F708959F3F30F08038710531
S1132830610509F03C5F3C5F3D93913008F080688E
S1132840911DDF93CF931F930F93FF92EF92192F54
S1132850987F9695E92F96959695E90FFF27EC5664
S1132860FE4F99273327EE24FF24A701E7010590A3
S11328700894079428F4360FE71EF81E491F511DCB
S1132880660F771F881F991F0694A1F70590079478
S113289028F4E70EF81E491F561FC11D770F881F25
S11328A0991F661F0694A1F70590079428F4F80E63
S11328B0491F561FC71FD11D880F991F661F771FF9
S11328C00694A1F70590079420F4490F561FC71FDB
S11328D0D81F990F661F771F881F0694A9F7849144
S11328E01095177041F0D695C79557954795F7946D
S11328F0E7941A95C1F7EAE3F1E06894159015910D
S113290035916591959105907FE27395E118F10AEF
S1132910430B560BC90BD009C0F7E10CF11E431F42
S1132920561FC91FD01D7EF4703311F48A95E6CF6B
S1132930E894015030F0080F0AF40027021708F455
S1132940202F2395022F7A3328F079E37D932A955B
S1132950E9F710C07D932A9589F6069497956795B3
S1132960379517951794E118F10A430B560BC90BC9
S1132970D00998F023957E9173957A3308F070E32B
S11329807C932013B8F77E9170617D9330F083952A
S113299071E37D9370E32A95E1F71124EF90FF90A2
S11329A00F911F91CF91DF91992787FD90950895FD
S11329B0FC010590615070400110D8F78095909506
S11329C08E0F9F1F0895DC0101C06D93415050404C
S11329D0E0F70895FB01DC018D910190801901104D
S11329E0D9F3990B0895FB01DC0101900D920020AD
S11329F0E1F70895FC016150704001900110D8F78F
S1132A00809590958E0F9F1F08950F931F93CF93DA
S1132A10DF93182F092FEB018B8181FD03C08FEF0A
S1132A209FEF20C082FF10C04E815F812C813D81C9
S1132A30421753077CF4E881F9819F012F5F3F4FD0
S1132A4039832883108306C0E885F985812F099589
S1132A50892B29F72E813F812F5F3F4F3F832E83A0
S1132A60812F902FDF91CF911F910F9108950F9394
S1132A701F93CF93DF93CDB7DEB72E970FB6F8949D
S1132A80DEBF0FBECDBF0D891E8986E08C831A83FD
S1132A9009838FEF9FE79E838D83AE01475E5F4F6F
S1132AA06F89788DCE01019681D9EF81F885E00F89
S1132AB0F11F10822E960FB6F894DEBF0FBECDBF65
S1132AC0DF91CF911F910F9108950F931F93CF938F
S1132AD0DF93CDB7DEB72E970FB6F894DEBF0FBEE7
S1132AE0CDBF8C01CA0146E04C831A83098377FF6A
S1132AF002C060E070E8615071097E836D83A901B2
S1132B00BC01CE01019652D94D815E8157FD0AC0A8
S1132B102F813885421753070CF49A01F801E20F0C
S1132B20F31F10822E960FB6F894DEBF0FBECDBFF2
S1132B30DF91CF911F910F910895FA01AA272830B0
S1132B4051F1203181F1E8946F936E7F6E5F7F4F76
S1132B508F4F9F4FAF4FB1E03ED0B4E03CD0670FF2
S1132B60781F891F9A1FA11D680F791F8A1F911D45
S1132B70A11D6A0F711D811D911DA11D20D009F495
S1132B8068943F912AE0269F11243019305D3193D7
S1132B90DEF6CF010895462F4770405D4193B3E0C0
S1132BA00FD0C9F7F6CF462F4F70405D4A3318F067
S1132BB0495D31FD4052419302D0A9F7EACFB4E018
S1132BC0A6959795879577956795BA95C9F70097D0
S1132BD06105710508959B01AC010A2E0694579571
S1132BE0479537952795BA95C9F7620F731F841FC8
S10D2BF0951FA01D0895F894FFCF6F
S1132BFA0000970820004C046211454545414845A8
S1132C0A414845323232260D32260D6449522C256A
S1132C1A640A00534F4E2C25640A004445472C2568
S1132C2A6C660A00676172626167650044442C2518
S1132C3A640A0053746172742C25640A004449536B
S1132C4A2C25640A00424C2C25640A0042522C2585
S1132C5A640A00434C2C25640A0043522C25640A56
S1132C6A004C4C2C25640A004C522C25640A00455D
S1132C7A4E440A00616E676C656E2C256400616EB1
S1132C8A676C65702C25640025752C2025752C200D
S1132C9A25752C20257500572C4C65667420496DC2
S1132CAA7061637400572C526967687420496D70A7
S1132CBA61637400572C436C696666206C6566749C
S1132CCA00572C436C6966662072696768740057FA
S1132CDA2C6C696E652066726F6E74206C656674FE
S1132CEA00572C6C696E652066726F6E7420726967
S10F2CFA6768740057494E004849000008
S9030000FC
